:020000020000FC
:0200000005C039
:10000A0064C001E00EBD00E809BFFF27EDED0AED6F
:10001A0000830DBF09EA02930BE8029300270093BD
:10002A00DF0006E40093BC0000E00093BB0008E593
:10003A0000939E0000E000939D00789400C00FEFAB
:10004A0001BB77277F3F11F49A9501C093959030B1
:10005A0009F470959F3F09F4709507D08A958695A3
:10006A00000000000000C9F7EDCF9F93949A9A957B
:10007A00F1F79F919F93909594989A95F1F79F9194
:10008A0008950FEF01BB10E400B3012702BB01D0B2
:10009A00FACF94E684E674E17A95F1F78A95D9F76E
:1000AA009A95C1F708950FEF01BB10E200B301273B
:1000BA0002BB01D0FACF9FEF8FEF7FE07A95F1F77D
:1000CA008A95D9F79A95C1F70895FF93EF93DF932D
:1000DA00CF93BF93AF939F938F937F936F935F93C6
:1000EA004F933F932F931F930F931FB71F93009123
:1000FA00DF00EDEDFF27E01B1DB7108303950330EA
:10010A0031F4EDED00270093DF00108103C0009366
:10011A00DF0012911DBF1F911FBF0F911F912F91D9
:10012A003F914F915F916F917F918F919F91AF9185
:0C013A00BF91CF91DF91EF91FF911895DC
:00000001FF
