:100000008DC1A7C1A6C1A5C1A4C1A3C13CCAA1C13C
:10001000A0C19FC19EC19DC19CC19BC19AC199C1F4
:1000200098C197C196C15C0164016A016E017601B5
:100030007E0187018E01920198019C01A401AA0111
:10004000B301BA01C301CB01D101D901DD01E30143
:10005000E701EC01F201F901FE0107020E021402B0
:100060001A021F0227022C0234023A0245024C02F5
:1000700053025A02610269026F0277027E02850210
:1000800089028E0294029D02A702B302BB02000005
:10009000010F15070B070B070B0F14000F140001BE
:1000A0000002050C1122050C050C00101020200187
:1000B00001001C050C1122050C050C000D1A222A4A
:1000C00001010002050C1122050C050C00000000C6
:1000D0000001010003050C0F1E050C040B00101598
:1000E00025250101000407131738071307130C18FF
:1000F000000C1801010005030A0E18030A04090088
:10010000101C2830010100070B100B10000000002C
:100110000107070D0D000001080307171E0307095B
:100120000D0005050F0F01000009050C0509000071
:100130000000050D0D15150000030F060A060A0044
:100140000000000000010B11000103170407030663
:10015000000000000009091116000003554E4B4E27
:100160004F574E005349524353004E4543005341AD
:100170004D53554E47004D415453555348004B4144
:100180005345494B594F0052454353383000524371
:10019000350044454E4F4E005243360053414D53B7
:1001A000473332004150504C45005245435338309C
:1001B0004558004E55424552540042414E47204F4B
:1001C0004C55004752554E444947004E4F4B49410C
:1001D000005349454D454E53004644430052434366
:1001E0004152004A56430052433641004E494B4F5C
:1001F0004E0052555749444F0049523630004B414A
:1002000054485245494E004E4554424F58004E45C1
:10021000433136004E45433432004C45474F00547D
:10022000484F4D534F4E00424F53450041315456B5
:10023000424F58004F5254454B0054454C4546558B
:100240004E4B454E00524F4F4D42410052434D4D93
:1002500033320052434D4D32340052434D4D313212
:1002600000535045414B4552004C474149520053C1
:10027000414D53473438004D45524C494E0050458E
:100280004E5441580046414E0053313030004143F6
:1002900050323400544543484E4943530050414E78
:1002A00041534F4E4943004D495453555F484541D2
:1002B00056590056494E43454E5400524144494F09
:1002C00031000D0A00202020666C6167733A2030EF
:1002D0007800202020636F6D6D616E643A20307865
:1002E00000202020616464726573733A20307800C6
:1002F0002020200070726F746F636F6C3A2030782A
:1003000000202020554E4956455253414C20495219
:10031000204445434F4445520D0A000011241FBE9E
:10032000CFE5D4E0DEBFCDBF10E0A0E6B0E0E2EE66
:10033000F4E102C005900D92A837B107D9F710E09B
:10034000A8E7B0E001C01D92A23BB107E1F7D8D702
:10035000C6C856CEC698BE980895FC018091780014
:10036000882309F4C6C080919900813109F47BC0CB
:10037000823148F4833089F0873009F488C08230B4
:1003800009F096C031C0883109F48BC0823309F47A
:100390005AC0873109F08CC066C020919C00309112
:1003A0009D0080919C0090919D00232F3327809584
:1003B000909590702817390709F098C080919C009B
:1003C00090919D00907090939D0080939C0020914F
:1003D0009C0030919D0080919E0090919F00982FED
:1003E0008827822B932B2AC020919C0030919D005E
:1003F00080919C0090919D00232F332780959095AC
:10040000907028173907A9F080919A0090919B006D
:100410008E5E974809F06AC08BE0809399008091C6
:100420009C0090919D00892F992790939B00809329
:100430009A0080919C0090919D00907090939D00F7
:1004400080939C0035C020919C0030919D0080914C
:100450009C0090919D00232F332790702817390717
:1004600009F044C0E6CF80919C0090919D002091BE
:100470009C0030919D0096958795822780FF36C01D
:1004800080919C0090919D0096958795D7CF809103
:100490009A0090919B008F7D90939B0080939A008F
:1004A00007C080919C0090919D008D379105F1F0DF
:1004B00080919900808380919A0090919B00928313
:1004C000818380919C0090919D009483838380918F
:1004D000A000858310929D0010929C0010929B00BA
:1004E00010929A001092A00081E001C080E010926A
:1004F00078000895782F60918700662339F4809101
:1005000088008F3019F47093860055C0E0919100F7
:100510006E1738F180919200681718F58091970056
:10052000272F30E04091A1005091A200882381F054
:10053000862F90E08E1B910902C0220F331F8A95EF
:10054000E2F7422B532B5093A2004093A10033C0FB
:10055000440F551F242B352B3093A2002093A1006C
:100560002AC0E09193006E1730F1809194006817D3
:1005700010F580919700272F30E04091A300509113
:10058000A400882381F0862F90E08E1B910902C081
:10059000220F331F8A95E2F7422B532B5093A4006E
:1005A0004093A30008C0440F551F242B352B3093D4
:1005B000A4002093A300809188008C31E1F46D3079
:1005C00008F492C06A3108F08FC0872F90E0262F80
:1005D00030E02D50304002C0880F991F2A95E2F775
:1005E0002091A5003091A600282B392B3093A6002E
:1005F0002093A50079C08330E1F4613108F474C020
:10060000653108F071C0872F90E0262F30E021512E
:10061000304002C0880F991F2A95E2F72091A90067
:100620003091AA00282B392B3093AA002093A900DF
:100630005BC0853009F058C0862F84518430B0F4F7
:10064000872F90E0262F30E02850304002C0880FDE
:10065000991F2A95E2F72091A3003091A400282B3E
:10066000392B3093A4002093A30014C0862F885107
:10067000843080F4872F90E0262F30E024513040E2
:1006800002C0880F991F2A95E2F72091B100282B0C
:100690002093B100603340F5262F30E0E62FE69539
:1006A000E695E695772381F0F0E0E555FF4F27705A
:1006B000307081E090E002C0880F991F2A95E2F720
:1006C0002081282B208310C0F0E0E555FF4F2770D4
:1006D000307081E090E002C0880F991F2A95E2F700
:1006E00080952081822380836F5F609387000895C7
:1006F0001F9396B380917800882309F0F3C5907416
:1007000080918500882309F05FC080918200992341
:1007100011F48F5FE5C5882329F191E0909385005E
:1007200090938300109284001092A4001092A30072
:100730001092A2001092A1001092B1001092AA0093
:100740001092A9001092A8001092A7001092A60083
:100750001092A5008FEF80938700909381001092F4
:100760007B00C0C580917F00909180002FEF8F3F6C
:10077000920709F4B7C501969093800080937F009B
:1007800080916000909161002FEF8F3F920709F4F4
:10079000A9C501969093610080936000885E9240A5
:1007A00008F4A0C580917C0090917D00892B09F40C
:1007B00099C510927D0010927C008FEF9FEF90936F
:1007C0006100809360008EC580918300882309F4C6
:1007D00028C1992359F0809181008F5F8093810017
:1007E0008A3E08F407C480919900DEC220918200FD
:1007F000822F8F518B3048F480918100863028F011
:100800008B3018F460E970E0C5C0809199008431A4
:1008100051F4203540F02F3B30F4809181008A3331
:1008200010F0863A20F1822F8E55843590F4809115
:1008300081008E3228F08A3560F462EB70E0AAC045
:10084000873138F080919900843189F063EC70E051
:10085000A1C080919900843169F42E3558F0223B73
:1008600048F480918100853028F08D3018F461EAD9
:1008700070E090C0822F8C53803148F480918100C9
:100880008C3328F08C3418F464ED70E083C0822F30
:100890008952883148F480918100893228F081346E
:1008A00018F465EE70E076C0822F8852873148F4E4
:1008B00080918100833128F0803218F466EF70E077
:1008C00069C0822F8B50863018F08B508B30E0F44B
:1008D00090918100892F8B50863018F08B508B308F
:1008E00098F467E071E090937A002151203130F064
:1008F000809181008151803108F044C010927900CC
:1009000080E480937B0046C0822F8350853060F462
:1009100090918100892F8751883018F09950953037
:1009200018F468E171E036C0822F83528B3058F49E
:10093000809181008B3038F0813128F469E271E0D8
:1009400010927A001FC0822F8650853058F4809113
:100950008100813238F0823328F46AE371E08093B9
:100960007A0010C024502B3088F490918100892F98
:100970008650853018F08650893040F46BE471E081
:1009800090937A0081E08093790004C010928500F2
:1009900060E070E080918500882329F088E890E08D
:1009A00041E150E093D51092870080919800482F44
:1009B00050E080FF21C0809188008731E9F08930C4
:1009C000D9F02091810080918A00821760F430E094
:1009D00090E0880F991F821793072CF05695479542
:1009E000842F809507C080917900882391F45695D3
:1009F0004795842F81700CC080918800883049F41D
:100A0000809181008751883010F481E001C080E03E
:100A100071DD81E08093820010928100109283004A
:100A2000E9C280918400882309F4D7C2992309F48C
:100A3000C2C190918700809195009817B9F4809178
:100A40009600813099F48091980080FD0CC09091BF
:100A5000820080918D00981708F4A6C180918E00C5
:100A6000891708F4A1C110929600C4C25091810068
:100A70005F5F5093810060918800613031F55C3098
:100A800008F4D6C0409187004B3008F4D1C04F5FC6
:100A9000409395004150242F30E02B503040322FAE
:100AA00022278091A1009091A200822B932B9093FA
:100AB000A2008093A10080919300840F8F5F8093A8
:100AC00094008AE08093810076C16F3009F064C0A1
:100AD00080919600882309F0ABC0563230F18091A6
:100AE00087008550823008F581E08093960088E188
:100AF0008093880087E08093950010929100109277
:100B0000920010929300809394002091A300309162
:100B1000A400220F331F8091860090E0822B932B3C
:100B20009093A4008093A30046C1252F30E08091CC
:100B30008C0090E0880F991F2817390734F08091B6
:100B40008700883010F08AE03EC0809187008A30AC
:100B500008F450C280E18093880099E0909391005E
:100B600081E18093920081E08093930090939400C0
:100B70002091A3003091A400C90180709370892B4B
:100B800009F438C23093A1001092A2003070309363
:100B9000A4002093A3002EC2673109F049C08091C0
:100BA0009600882309F044C0252F30E080918C0006
:100BB00090E0880F991F2817390744F0809187002B
:100BC0008F3020F081E1809395004EC080918700A6
:100BD000813108F40FC281E1809388001092910066
:100BE0008BE0809392008093930086E18093940041
:100BF0002091A1003091A200220F331F220F331F3A
:100C00004091A3005091A400CA0166E09695879593
:100C10006A95E1F7822B932B9093A2008093A10019
:100C20004F7350708091790090E0842B952B8EC08B
:100C30008091980080FF1CC0252F30E080918C00AF
:100C400090E0880F991F2817390794F020918700AA
:100C500030E08091950090E002972817390744F022
:100C600080919600882321F481E080939600A3C0B0
:100C70005A3E08F4BFC140918700242F30E0809194
:100C8000950090E001972817390741F4809196006C
:100C9000882321F44F5F40938700ACC1623029F56F
:100CA0004051423008F080C041E04093960084E11A
:100CB0008093880080918700809395008091A100A7
:100CC0009091A2009C01B4E036952795BA95E1F782
:100CD0003093A4002093A3008F7090709093A20093
:100CE0008093A1004093850085C16C3109F05CC000
:100CF000403289F581E08093960082E080938800FD
:100D000080918700809395008091A500382F3295BF
:100D1000330F307E20E08091A1009091A200822BC1
:100D2000932B9093A2008093A1002091A300922F77
:100D3000990F990F80E02091A5003091A600A3E0C3
:100D400036952795AA95E1F7822B932B9093A400D3
:100D50008093A3004FC14051423030F581E0809331
:100D6000960084E1809388008091870080939500AD
:100D70002091A500922F990F80E02091A100309141
:100D8000A200A901F4E056954795FA95E1F7842B66
:100D9000952B9093A4008093A3002F703070309314
:100DA000A2002093A10026C110928500109282001B
:100DB000109281001FC180919800282F30E080FFA1
:100DC00091C01091820080918A00811708F046C07E
:100DD00080918800893081F480918700843061F4AB
:100DE0001C3050F080919500843219F481E082DB50
:100DF00023C080E07FDB1DC036952795822F80952C
:100E0000817078DB809188008930C1F480918700FF
:100E10008430A1F41C3090F081E06CDB20918100E3
:100E200030E080918C0090E0880F991F8217930723
:100E30001CF41092790051C081E00DC0809198009F
:100E400090E096958795817055DB8091980090E0B1
:100E5000969587958170809379003FC08091890035
:100E60001817B8F120917A0080918C00821780F4D5
:100E700030E090E0880F991F821793074CF020E034
:100E800080917900882309F421E02093790002C041
:100E900020917900809188008930C1F48091870089
:100EA0008130A1F4213091F494E29093950085E093
:100EB0008093910084E18093920085E18093930078
:100EC000909394001092A2001092A100822F12DB46
:100ED00004C010928500109281008091810080935F
:100EE0007A0047C080918800833049F5809187005F
:100EF000803109F041C0809182008550883008F02F
:100F000066C0809181008C3340F08C3430F41092B4
:100F1000840081E1809387005EC08AE0809388002E
:100F200080E18093930080E2809394008093950009
:100F3000809181008F50803108F046C031C08C31E3
:100F4000D9F4909187009830B9F4809181008E3265
:100F500098F08A3588F48BE1809388001092910094
:100F6000909392009093930080E1809394008093FB
:100F70009500109284002FC090918200809189008A
:100F8000981780F080918A00891760F02091810085
:100F900080918B00281730F080918C00821710F020
:100FA00081E013C080918D00981788F080918E00A9
:100FB000891768F09091810080918F00981738F020
:100FC00080919000891718F080E094DAD2CF1092C7
:100FD00085001092810081E005C0992331F4809151
:100FE00082008F5F8093820005C081E0809384003F
:100FF0008093810080918500882309F473C19091CA
:10100000870080919500981709F06CC18091960037
:10101000882309F067C120916200309163008091BC
:10102000A3009091A4002817390769F480917F00EC
:1010300090918000805B944030F480917E008F5FBF
:1010400080937E0002C010927E00909188009130C3
:1010500051F480917E008150823028F410928000FB
:1010600010927F00F4C081E0809378009830D1F531
:101070002091A3003091A400A90140955095537090
:1010800080917C0090917D0048175907C9F45093D6
:10109000A4004093A30010927D0010927C008091E8
:1010A0008800809399008091A1009091A200909374
:1010B0009B0080939A0050939D0040939C00C7C072
:1010C00020FD09C030937D0020937C0010926100C8
:1010D0001092600004C010927D0010927C0010926B
:1010E0007800B5C09F3041F48091A3009091A40096
:1010F0008F5F9140D9F5F3CF903179F48091A100C1
:101100009091A2008F3F910589F58091A300909165
:10111000A4008E3F910551F5E2CF923039F58091D0
:101120008700882319F580917F0090918000885076
:101130009740D0F480916400909165009093A20054
:101140008093A10080916200909163009093A4002D
:101150008093A3008091A00081608093A0001092F2
:10116000800010927F0002C0109278008091880069
:10117000853071F58091AB009091AC004091AD004D
:10118000282F2F7082958F702827892F8F702827FE
:1011900092959F70292730E0842F90E08F70907097
:1011A0002817390711F0109278008091AE00482777
:1011B0008091AF0048278091B000481711F010923D
:1011C00078008091A0009091B100892B8093A000BD
:1011D00090918800993041F480919500843221F4F7
:1011E00085E18093990002C0909399002091A1001D
:1011F0003091A20030939B0020939A008091880048
:10120000823021F43093650020936400809188003F
:10121000873069F420917B0030E08091A3009091A9
:10122000A400822B932B9093A4008093A300809121
:10123000A3009091A40090939D0080939C008091C6
:10124000A9009091AA0090939F0080939E008091A6
:1012500078008823B1F12091620030916300809181
:10126000A3009091A40028173907B9F420916400D5
:10127000309165008091A1009091A2002817390754
:1012800061F480917F00909180008A5C984028F4FE
:101290008091A00081608093A0008091A100909136
:1012A000A20090936500809364008091A3009091C8
:1012B000A4009093630080936200109280001092CB
:1012C0007F00109285001092A4001092A30010924B
:1012D00082001092810080919900843119F487E88E
:1012E00080938200809178001F910895FC0104C0D2
:1012F0005D9BFECF8CB9319684918823C9F7089500
:10130000EF92FF920F931F93DF93CF93CDB7DEB78A
:101310002B970FB6F894DEBF0FBECDBF80EB81BF19
:1013200019D884E192E09BBD8ABD89E08EBD80E141
:1013300089BF10BC83E389B9599886E880BD539A68
:1013400081E093E0D3DF7894E6E0EE2EF12CEC0E12
:10135000FD1E8E010F5F1F4FC701FFD78823E1F3EA
:1013600084EF92E0C3DFAE81B0E01B82FD01EF703D
:10137000F070EA59FF4F80818A8374E0B695A79593
:101380007A95E1F7AA59BF4F8C918983F80104C07F
:101390005D9BFECF8CB9319680818823C9F780EFA1
:1013A00092E0A4DF8E81E82FF0E0EE0FFF1FEA5DF0
:1013B000FF4F859194919ADF81EE92E097DF2F8124
:1013C00038851D8294E09150F801E90FF11DD90193
:1013D000AF70B070AA59BF4F8C91808354E036959E
:1013E00027955A95E1F7992371F7F80104C05D9BA1
:1013F000FECF8CB9319680818823C9F782ED92E0C7
:1014000075DF29853A851D8294E09150F801E90F36
:10141000F11DD901AF70B070AA59BF4F8C91808374
:1014200044E0369527954A95E1F7992371F7F8013D
:1014300004C05D9BFECF8CB9319680818823C9F7AB
:1014400085EC92E053DFAB85B0E01B82FD01EF70CD
:10145000F070EA59FF4F80818A8384E0B695A795A2
:101460008A95E1F7AA59BF4F8C918983F80104C08E
:101470005D9BFECF8CB9319680818823C9F782ECC1
:1014800092E034DF69CF1F920F920FB60F921124B2
:101490002F933F934F935F936F937F938F939F937C
:1014A000AF93BF93EF93FF9323D9FF91EF91BF9138
:1014B000AF919F918F917F916F915F914F913F91EC
:1014C0002F910F900FBE0F901F901895FB01DC011C
:1014D00002C005900D9241505040D8F70895F894FD
:0214E000FFCF3C
:1014E200FFFFFFFFFFFF30313233343536373839F3
:0814F20041424344454600005D
:00000001FF
